{
  "_format": "hh3-artifact-1",
  "contractName": "FundMePlatform",
  "sourceName": "contracts/FundMePlatform.sol",
  "abi": [
    {
      "inputs": [
        {
          "internalType": "address",
          "name": "_fundMeTokenAddress",
          "type": "address"
        }
      ],
      "stateMutability": "nonpayable",
      "type": "constructor"
    },
    {
      "inputs": [
        {
          "internalType": "address",
          "name": "owner",
          "type": "address"
        }
      ],
      "name": "OwnableInvalidOwner",
      "type": "error"
    },
    {
      "inputs": [
        {
          "internalType": "address",
          "name": "account",
          "type": "address"
        }
      ],
      "name": "OwnableUnauthorizedAccount",
      "type": "error"
    },
    {
      "anonymous": false,
      "inputs": [
        {
          "indexed": true,
          "internalType": "uint256",
          "name": "projectId",
          "type": "uint256"
        },
        {
          "indexed": true,
          "internalType": "address",
          "name": "winner",
          "type": "address"
        }
      ],
      "name": "AuctionWinnerSet",
      "type": "event"
    },
    {
      "anonymous": false,
      "inputs": [
        {
          "indexed": true,
          "internalType": "uint256",
          "name": "projectId",
          "type": "uint256"
        },
        {
          "indexed": true,
          "internalType": "address",
          "name": "sponsoree",
          "type": "address"
        }
      ],
      "name": "FundsWithdrawn",
      "type": "event"
    },
    {
      "anonymous": false,
      "inputs": [
        {
          "indexed": true,
          "internalType": "uint256",
          "name": "projectId",
          "type": "uint256"
        },
        {
          "indexed": false,
          "internalType": "string",
          "name": "ipfsHash",
          "type": "string"
        }
      ],
      "name": "LeaderboardUpdated",
      "type": "event"
    },
    {
      "anonymous": false,
      "inputs": [
        {
          "indexed": true,
          "internalType": "address",
          "name": "previousOwner",
          "type": "address"
        },
        {
          "indexed": true,
          "internalType": "address",
          "name": "newOwner",
          "type": "address"
        }
      ],
      "name": "OwnershipTransferred",
      "type": "event"
    },
    {
      "anonymous": false,
      "inputs": [
        {
          "indexed": true,
          "internalType": "uint256",
          "name": "projectId",
          "type": "uint256"
        },
        {
          "indexed": true,
          "internalType": "address",
          "name": "sponsoree",
          "type": "address"
        },
        {
          "indexed": false,
          "internalType": "uint256",
          "name": "deadline",
          "type": "uint256"
        }
      ],
      "name": "ProjectCreated",
      "type": "event"
    },
    {
      "anonymous": false,
      "inputs": [
        {
          "indexed": true,
          "internalType": "uint256",
          "name": "projectId",
          "type": "uint256"
        },
        {
          "indexed": true,
          "internalType": "address",
          "name": "sponsor",
          "type": "address"
        }
      ],
      "name": "RefundClaimed",
      "type": "event"
    },
    {
      "anonymous": false,
      "inputs": [
        {
          "indexed": true,
          "internalType": "uint256",
          "name": "projectId",
          "type": "uint256"
        },
        {
          "indexed": false,
          "internalType": "bool",
          "name": "isFinalReveal",
          "type": "bool"
        }
      ],
      "name": "RevealRequested",
      "type": "event"
    },
    {
      "anonymous": false,
      "inputs": [
        {
          "indexed": true,
          "internalType": "uint256",
          "name": "projectId",
          "type": "uint256"
        },
        {
          "indexed": true,
          "internalType": "address",
          "name": "sponsor",
          "type": "address"
        },
        {
          "indexed": false,
          "internalType": "uint256",
          "name": "timestamp",
          "type": "uint256"
        }
      ],
      "name": "SponsorshipAdded",
      "type": "event"
    },
    {
      "anonymous": false,
      "inputs": [
        {
          "indexed": true,
          "internalType": "uint256",
          "name": "projectId",
          "type": "uint256"
        },
        {
          "indexed": false,
          "internalType": "address[]",
          "name": "winners",
          "type": "address[]"
        }
      ],
      "name": "TopKSponsorsSet",
      "type": "event"
    },
    {
      "inputs": [
        {
          "internalType": "uint256",
          "name": "",
          "type": "uint256"
        }
      ],
      "name": "auctionWinner",
      "outputs": [
        {
          "internalType": "address",
          "name": "",
          "type": "address"
        }
      ],
      "stateMutability": "view",
      "type": "function"
    },
    {
      "inputs": [
        {
          "internalType": "uint256",
          "name": "projectId",
          "type": "uint256"
        }
      ],
      "name": "claimAuctionRefund",
      "outputs": [],
      "stateMutability": "nonpayable",
      "type": "function"
    },
    {
      "inputs": [
        {
          "internalType": "uint256",
          "name": "projectId",
          "type": "uint256"
        }
      ],
      "name": "claimRefund",
      "outputs": [],
      "stateMutability": "nonpayable",
      "type": "function"
    },
    {
      "inputs": [
        {
          "internalType": "uint256",
          "name": "durationMinutes",
          "type": "uint256"
        },
        {
          "internalType": "uint8",
          "name": "topKLimit",
          "type": "uint8"
        },
        {
          "internalType": "string",
          "name": "reclaimProofId",
          "type": "string"
        },
        {
          "internalType": "string",
          "name": "title",
          "type": "string"
        },
        {
          "internalType": "string",
          "name": "description",
          "type": "string"
        },
        {
          "internalType": "bool",
          "name": "isAuction",
          "type": "bool"
        },
        {
          "internalType": "uint256",
          "name": "minBidAmount",
          "type": "uint256"
        },
        {
          "internalType": "uint256",
          "name": "cooldownSeconds",
          "type": "uint256"
        }
      ],
      "name": "createProject",
      "outputs": [
        {
          "internalType": "uint256",
          "name": "",
          "type": "uint256"
        }
      ],
      "stateMutability": "nonpayable",
      "type": "function"
    },
    {
      "inputs": [
        {
          "internalType": "uint256",
          "name": "projectId",
          "type": "uint256"
        },
        {
          "internalType": "string",
          "name": "ipfsHash",
          "type": "string"
        }
      ],
      "name": "fulfillLeaderboard",
      "outputs": [],
      "stateMutability": "nonpayable",
      "type": "function"
    },
    {
      "inputs": [],
      "name": "fundMeToken",
      "outputs": [
        {
          "internalType": "contract IERC7984",
          "name": "",
          "type": "address"
        }
      ],
      "stateMutability": "view",
      "type": "function"
    },
    {
      "inputs": [
        {
          "internalType": "uint256",
          "name": "projectId",
          "type": "uint256"
        }
      ],
      "name": "getAuctionWinner",
      "outputs": [
        {
          "internalType": "address",
          "name": "",
          "type": "address"
        }
      ],
      "stateMutability": "view",
      "type": "function"
    },
    {
      "inputs": [
        {
          "internalType": "uint256",
          "name": "projectId",
          "type": "uint256"
        },
        {
          "internalType": "address",
          "name": "sponsor",
          "type": "address"
        }
      ],
      "name": "getContributionHandle",
      "outputs": [
        {
          "internalType": "bytes32",
          "name": "",
          "type": "bytes32"
        }
      ],
      "stateMutability": "view",
      "type": "function"
    },
    {
      "inputs": [
        {
          "internalType": "uint256",
          "name": "projectId",
          "type": "uint256"
        }
      ],
      "name": "getLeaderboardHistory",
      "outputs": [
        {
          "internalType": "string[]",
          "name": "",
          "type": "string[]"
        }
      ],
      "stateMutability": "view",
      "type": "function"
    },
    {
      "inputs": [
        {
          "internalType": "uint256",
          "name": "projectId",
          "type": "uint256"
        }
      ],
      "name": "getTopKSponsors",
      "outputs": [
        {
          "internalType": "address[]",
          "name": "",
          "type": "address[]"
        }
      ],
      "stateMutability": "view",
      "type": "function"
    },
    {
      "inputs": [
        {
          "internalType": "uint256",
          "name": "projectId",
          "type": "uint256"
        },
        {
          "internalType": "address",
          "name": "sponsor",
          "type": "address"
        }
      ],
      "name": "hasClaimedAuctionRefund",
      "outputs": [
        {
          "internalType": "bool",
          "name": "",
          "type": "bool"
        }
      ],
      "stateMutability": "view",
      "type": "function"
    },
    {
      "inputs": [
        {
          "internalType": "uint256",
          "name": "projectId",
          "type": "uint256"
        },
        {
          "internalType": "address",
          "name": "sponsor",
          "type": "address"
        }
      ],
      "name": "hasClaimedRefund",
      "outputs": [
        {
          "internalType": "bool",
          "name": "",
          "type": "bool"
        }
      ],
      "stateMutability": "view",
      "type": "function"
    },
    {
      "inputs": [
        {
          "internalType": "uint256",
          "name": "",
          "type": "uint256"
        },
        {
          "internalType": "address",
          "name": "",
          "type": "address"
        }
      ],
      "name": "isTopKSponsor",
      "outputs": [
        {
          "internalType": "bool",
          "name": "",
          "type": "bool"
        }
      ],
      "stateMutability": "view",
      "type": "function"
    },
    {
      "inputs": [],
      "name": "leaderboardCooldown",
      "outputs": [
        {
          "internalType": "uint256",
          "name": "",
          "type": "uint256"
        }
      ],
      "stateMutability": "view",
      "type": "function"
    },
    {
      "inputs": [],
      "name": "nextProjectId",
      "outputs": [
        {
          "internalType": "uint256",
          "name": "",
          "type": "uint256"
        }
      ],
      "stateMutability": "view",
      "type": "function"
    },
    {
      "inputs": [],
      "name": "owner",
      "outputs": [
        {
          "internalType": "address",
          "name": "",
          "type": "address"
        }
      ],
      "stateMutability": "view",
      "type": "function"
    },
    {
      "inputs": [
        {
          "internalType": "uint256",
          "name": "",
          "type": "uint256"
        }
      ],
      "name": "pendingIsFinalReveal",
      "outputs": [
        {
          "internalType": "bool",
          "name": "",
          "type": "bool"
        }
      ],
      "stateMutability": "view",
      "type": "function"
    },
    {
      "inputs": [
        {
          "internalType": "uint256",
          "name": "",
          "type": "uint256"
        }
      ],
      "name": "projectWithdrawn",
      "outputs": [
        {
          "internalType": "bool",
          "name": "",
          "type": "bool"
        }
      ],
      "stateMutability": "view",
      "type": "function"
    },
    {
      "inputs": [
        {
          "internalType": "uint256",
          "name": "",
          "type": "uint256"
        }
      ],
      "name": "projects",
      "outputs": [
        {
          "internalType": "address",
          "name": "sponsoree",
          "type": "address"
        },
        {
          "internalType": "uint256",
          "name": "deadline",
          "type": "uint256"
        },
        {
          "internalType": "uint8",
          "name": "topKLimit",
          "type": "uint8"
        },
        {
          "internalType": "string",
          "name": "reclaimProofId",
          "type": "string"
        },
        {
          "internalType": "bool",
          "name": "isFinalized",
          "type": "bool"
        },
        {
          "internalType": "uint256",
          "name": "lastRevealTimestamp",
          "type": "uint256"
        },
        {
          "internalType": "string",
          "name": "title",
          "type": "string"
        },
        {
          "internalType": "string",
          "name": "description",
          "type": "string"
        },
        {
          "internalType": "bool",
          "name": "isAuction",
          "type": "bool"
        },
        {
          "internalType": "uint256",
          "name": "minBidAmount",
          "type": "uint256"
        },
        {
          "internalType": "uint256",
          "name": "leaderboardCooldown",
          "type": "uint256"
        }
      ],
      "stateMutability": "view",
      "type": "function"
    },
    {
      "inputs": [],
      "name": "renounceOwnership",
      "outputs": [],
      "stateMutability": "nonpayable",
      "type": "function"
    },
    {
      "inputs": [
        {
          "internalType": "uint256",
          "name": "projectId",
          "type": "uint256"
        },
        {
          "internalType": "bool",
          "name": "isFinalReveal",
          "type": "bool"
        }
      ],
      "name": "requestLeaderboardRefresh",
      "outputs": [],
      "stateMutability": "payable",
      "type": "function"
    },
    {
      "inputs": [
        {
          "internalType": "uint256",
          "name": "projectId",
          "type": "uint256"
        },
        {
          "internalType": "address",
          "name": "winner",
          "type": "address"
        }
      ],
      "name": "setAuctionWinner",
      "outputs": [],
      "stateMutability": "nonpayable",
      "type": "function"
    },
    {
      "inputs": [
        {
          "internalType": "uint256",
          "name": "newCooldownSeconds",
          "type": "uint256"
        }
      ],
      "name": "setLeaderboardCooldown",
      "outputs": [],
      "stateMutability": "nonpayable",
      "type": "function"
    },
    {
      "inputs": [
        {
          "internalType": "address",
          "name": "_newOracle",
          "type": "address"
        }
      ],
      "name": "setTeeOracleAddress",
      "outputs": [],
      "stateMutability": "nonpayable",
      "type": "function"
    },
    {
      "inputs": [
        {
          "internalType": "uint256",
          "name": "projectId",
          "type": "uint256"
        },
        {
          "internalType": "address[]",
          "name": "winners",
          "type": "address[]"
        }
      ],
      "name": "setTopKSponsors",
      "outputs": [],
      "stateMutability": "nonpayable",
      "type": "function"
    },
    {
      "inputs": [
        {
          "internalType": "uint256",
          "name": "projectId",
          "type": "uint256"
        },
        {
          "internalType": "externalEuint256",
          "name": "encryptedAmount",
          "type": "bytes32"
        },
        {
          "internalType": "bytes",
          "name": "inputProof",
          "type": "bytes"
        }
      ],
      "name": "sponsorProject",
      "outputs": [],
      "stateMutability": "nonpayable",
      "type": "function"
    },
    {
      "inputs": [],
      "name": "teeOracleAddress",
      "outputs": [
        {
          "internalType": "address",
          "name": "",
          "type": "address"
        }
      ],
      "stateMutability": "view",
      "type": "function"
    },
    {
      "inputs": [
        {
          "internalType": "uint256",
          "name": "",
          "type": "uint256"
        }
      ],
      "name": "topKSponsorsSet",
      "outputs": [
        {
          "internalType": "bool",
          "name": "",
          "type": "bool"
        }
      ],
      "stateMutability": "view",
      "type": "function"
    },
    {
      "inputs": [
        {
          "internalType": "address",
          "name": "newOwner",
          "type": "address"
        }
      ],
      "name": "transferOwnership",
      "outputs": [],
      "stateMutability": "nonpayable",
      "type": "function"
    },
    {
      "inputs": [
        {
          "internalType": "uint256",
          "name": "projectId",
          "type": "uint256"
        }
      ],
      "name": "withdrawProjectFunds",
      "outputs": [],
      "stateMutability": "nonpayable",
      "type": "function"
    }
  ],
  "bytecode": "0x608060405261a8c0600355348015610015575f5ffd5b50604051612d20380380612d20833981016040819052610034916100e0565b338061005957604051631e4fbdf760e01b81525f600482015260240160405180910390fd5b61006281610091565b50600180546001600160a01b039092166001600160a01b0319928316179055600280549091163317905561010d565b5f80546001600160a01b038381166001600160a01b0319831681178455604051919092169283917f8be0079c531659141344cd1fd0a4f28419497f9722a3daafe3b4186f6b6457e09190a35050565b5f602082840312156100f0575f5ffd5b81516001600160a01b0381168114610106575f5ffd5b9392505050565b612c068061011a5f395ff3fe6080604052600436106101c5575f3560e01c8063729c9173116100f2578063dae041ae11610092578063f08780d211610062578063f08780d214610574578063f2fde38b14610593578063fe0dad25146105b2578063fe86cc68146105e6575f5ffd5b8063dae041ae146104f3578063dc3c55d614610512578063e935b7b114610540578063ecb4bddd14610555575f5ffd5b8063a6dd99f7116100cd578063a6dd99f714610467578063b154afc314610448578063c32aaa1214610493578063c8e6e273146104b2575f5ffd5b8063729c91731461040d5780638da5cb5b1461042c5780639c8ed44e14610448575f5ffd5b806332f2a8031161016857806340c474f41161013857806340c474f41461039c5780634a114387146103bb5780635b7baf64146103da578063715018a6146103f9575f5ffd5b806332f2a8031461030d578063337c54b51461033b5780633622983c1461035e57806339c2607d1461037d575f5ffd5b806317354871116101a3578063173548711461028e5780631f9f7a1e146102ba5780632b17c051146102db5780632c3081e7146102fa575f5ffd5b8063083d353b146101c9578063107046bd1461021a5780631239ccb414610250575b5f5ffd5b3480156101d4575f5ffd5b506101fd6101e3366004612376565b5f908152600a60205260409020546001600160a01b031690565b6040516001600160a01b0390911681526020015b60405180910390f35b348015610225575f5ffd5b50610239610234366004612376565b61061f565b6040516102119b9a999897969594939291906123bb565b34801561025b575f5ffd5b5061027e61026a366004612376565b60096020525f908152604090205460ff1681565b6040519015158152602001610211565b348015610299575f5ffd5b506102ad6102a8366004612376565b610821565b604051610211919061244d565b3480156102c5575f5ffd5b506102d96102d4366004612376565b610909565b005b3480156102e6575f5ffd5b506102d96102f5366004612376565b610915565b6102d96103083660046124cd565b610922565b348015610318575f5ffd5b5061027e610327366004612376565b600d6020525f908152604090205460ff1681565b348015610346575f5ffd5b5061035060035481565b604051908152602001610211565b348015610369575f5ffd5b506002546101fd906001600160a01b031681565b348015610388575f5ffd5b506102d9610397366004612511565b610b4c565b3480156103a7575f5ffd5b506001546101fd906001600160a01b031681565b3480156103c6575f5ffd5b506102d96103d536600461253b565b610bd9565b3480156103e5575f5ffd5b506102d96103f4366004612376565b610c4b565b348015610404575f5ffd5b506102d9610f1a565b348015610418575f5ffd5b506102d9610427366004612599565b610f2d565b348015610437575f5ffd5b505f546001600160a01b03166101fd565b348015610453575f5ffd5b5061027e610462366004612511565b611259565b348015610472575f5ffd5b50610486610481366004612376565b611285565b60405161021191906125e8565b34801561049e575f5ffd5b506102d96104ad366004612647565b6112ee565b3480156104bd575f5ffd5b506103506104cc366004612511565b5f9182526007602090815260408084206001600160a01b0393909316845291905290205490565b3480156104fe575f5ffd5b506102d961050d36600461271e565b6116a9565b34801561051d575f5ffd5b5061027e61052c366004612376565b60066020525f908152604090205460ff1681565b34801561054b575f5ffd5b5061035060045481565b348015610560575f5ffd5b506102d961056f366004612376565b611768565b34801561057f575f5ffd5b5061035061058e366004612776565b611b1b565b34801561059e575f5ffd5b506102d96105ad36600461253b565b611f15565b3480156105bd575f5ffd5b506101fd6105cc366004612376565b600a6020525f90815260409020546001600160a01b031681565b3480156105f1575f5ffd5b5061027e610600366004612511565b600b60209081525f928352604080842090915290825290205460ff1681565b60056020525f908152604090208054600182015460028301546003840180546001600160a01b0390941694929360ff909216929161065c90612856565b80601f016020809104026020016040519081016040528092919081815260200182805461068890612856565b80156106d35780601f106106aa576101008083540402835291602001916106d3565b820191905f5260205f20905b8154815290600101906020018083116106b657829003601f168201915b5050505060048301546005840154600785018054949560ff90931694919350906106fc90612856565b80601f016020809104026020016040519081016040528092919081815260200182805461072890612856565b80156107735780601f1061074a57610100808354040283529160200191610773565b820191905f5260205f20905b81548152906001019060200180831161075657829003601f168201915b50505050509080600801805461078890612856565b80601f01602080910402602001604051908101604052809291908181526020018280546107b490612856565b80156107ff5780601f106107d6576101008083540402835291602001916107ff565b820191905f5260205f20905b8154815290600101906020018083116107e257829003601f168201915b505050506009830154600a840154600b90940154929360ff909116929091508b565b606060055f8381526020019081526020015f20600601805480602002602001604051908101604052809291908181526020015f905b828210156108fe578382905f5260205f2001805461087390612856565b80601f016020809104026020016040519081016040528092919081815260200182805461089f90612856565b80156108ea5780601f106108c1576101008083540402835291602001916108ea565b820191905f5260205f20905b8154815290600101906020018083116108cd57829003601f168201915b505050505081526020019060010190610856565b505050509050919050565b61091281610c4b565b50565b61091d611f4f565b600355565b5f82815260056020526040902080546001600160a01b0316331461098d5760405162461bcd60e51b815260206004820152601a60248201527f4f6e6c792073706f6e736f7265652063616e207265667265736800000000000060448201526064015b60405180910390fd5b8115610a3a5780600101544210156109e05760405162461bcd60e51b815260206004820152601660248201527510d85b5c185a59db881b9bdd08195b991959081e595d60521b6044820152606401610984565b600481015460ff1615610a355760405162461bcd60e51b815260206004820152601960248201527f50726f6a65637420616c72656164792066696e616c697a6564000000000000006044820152606401610984565b610aee565b80600101544210610a995760405162461bcd60e51b8152602060048201526024808201527f43616d706169676e2068617320656e6465642c207573652066696e616c2072656044820152631d99585b60e21b6064820152608401610984565b80600b01548160050154610aad91906128a2565b421015610aee5760405162461bcd60e51b815260206004820152600f60248201526e436f6f6c646f776e2061637469766560881b6044820152606401610984565b5f83815260066020908152604091829020805460ff1916851515908117909155426005850155915191825284917f98f74311feaa31b35c529a3c109c0ccf1ea4fbe475263ec1d69b0c1b9fcadfac91015b60405180910390a2505050565b6002546001600160a01b03163314610b765760405162461bcd60e51b8152600401610984906128b5565b6040805160018082528183019092525f916020808301908036833701905050905081815f81518110610baa57610baa6128ec565b60200260200101906001600160a01b031690816001600160a01b031681525050610bd483826112ee565b505050565b610be1611f4f565b6001600160a01b038116610c295760405162461bcd60e51b815260206004820152600f60248201526e496e76616c6964206164647265737360881b6044820152606401610984565b600280546001600160a01b0319166001600160a01b0392909216919091179055565b5f818152600560205260409020600481015460ff16610cac5760405162461bcd60e51b815260206004820152601960248201527f50726f6a656374206e6f742066696e616c697a656420796574000000000000006044820152606401610984565b5f828152600d602052604090205460ff16610cff5760405162461bcd60e51b815260206004820152601360248201527215da5b9b995c9cc81b9bdd081cd95d081e595d606a1b6044820152606401610984565b5f828152600b6020908152604080832033845290915290205460ff1615610d735760405162461bcd60e51b815260206004820152602260248201527f546f702d4b2073706f6e736f72732063616e6e6f7420636c61696d20726566756044820152611b9960f21b6064820152608401610984565b5f828152600e6020908152604080832033845290915290205460ff1615610dd55760405162461bcd60e51b81526020600482015260166024820152751499599d5b9908185b1c9958591e4818db185a5b595960521b6044820152606401610984565b5f82815260076020908152604080832033845290915290205480610e3b5760405162461bcd60e51b815260206004820152601960248201527f4e6f20636f6e747269627574696f6e20746f20726566756e64000000000000006044820152606401610984565b5f838152600e602090815260408083203384529091529020805460ff1916600190811790915554610e769082906001600160a01b0316611f7b565b600154604051632df5f6bf60e11b8152336004820152602481018390526001600160a01b0390911690635bebed7e906044016020604051808303815f875af1158015610ec4573d5f5f3e3d5ffd5b505050506040513d601f19601f82011682018060405250810190610ee89190612900565b50604051339084907fd86f3d2d747d5d831df461fda7bf64b7d9d57ff4b8b3fe58836776cf90a6bda5905f90a3505050565b610f22611f4f565b610f2b5f611f89565b565b5f84815260056020526040902060018101544210610f8d5760405162461bcd60e51b815260206004820152601a60248201527f46756e64696e672063616d706169676e2068617320656e6465640000000000006044820152606401610984565b600154604051635b1b1e7960e11b81523360048201523060248201526001600160a01b039091169063b6363cf290604401602060405180830381865afa158015610fd9573d5f5f3e3d5ffd5b505050506040513d601f19601f82011682018060405250810190610ffd9190612917565b6110495760405162461bcd60e51b815260206004820152601b60248201527f506c6174666f726d206973206e6f7420616e206f70657261746f7200000000006044820152606401610984565b5f611055858585611fd8565b60015490915061106f9082906001600160a01b0316611f7b565b60015460405163eb3155b560e01b8152336004820152306024820152604481018390526001600160a01b039091169063eb3155b5906064016020604051808303815f875af11580156110c3573d5f5f3e3d5ffd5b505050506040513d601f19601f820116820180604052508101906110e79190612900565b505f86815260076020908152604080832033845290915290205480611126575f878152600760209081526040808320338452909152902082905561114a565b611130818361204c565b5f8881526007602090815260408083203384529091529020555b5f87815260076020908152604080832033845290915290205461116d90306120e4565b5f87815260076020908152604080832033845290915290205460025461119c91906001600160a01b03166120e4565b5f878152600760209081526040808320338085529252909120546111bf916120e4565b5f87815260086020526040902054806111e7575f888152600860205260409020839055611200565b6111f1818461204c565b5f898152600860205260409020555b5f8881526008602052604090205461121890306120e4565b604051428152339089907fbf3f11a0935e288e5bacc2307962b28c11ef53c7f19323b785417efcf1dd13f99060200160405180910390a35050505050505050565b5f828152600e602090815260408083206001600160a01b038516845290915290205460ff165b92915050565b5f818152600c60209081526040918290208054835181840281018401909452808452606093928301828280156112e257602002820191905f5260205f20905b81546001600160a01b031681526001909101906020018083116112c4575b50505050509050919050565b6002546001600160a01b031633146113185760405162461bcd60e51b8152600401610984906128b5565b5f828152600560205260409020600481015460ff166113795760405162461bcd60e51b815260206004820152601f60248201527f50726f6a656374206d7573742062652066696e616c697a6564206669727374006044820152606401610984565b5f838152600d602052604090205460ff16156113cd5760405162461bcd60e51b815260206004820152601360248201527215da5b9b995c9cc8185b1c9958591e481cd95d606a1b6044820152606401610984565b5f82511161141d5760405162461bcd60e51b815260206004820152601c60248201527f4174206c65617374206f6e652077696e6e6572207265717569726564000000006044820152606401610984565b6002810154825160ff909116101561146d5760405162461bcd60e51b8152602060048201526013602482015272115e18d959591cc81d1bdc0b52c81b1a5b5a5d606a1b6044820152606401610984565b5f5b82518110156115b4575f6001600160a01b0316838281518110611494576114946128ec565b60200260200101516001600160a01b0316036114eb5760405162461bcd60e51b8152602060048201526016602482015275496e76616c69642077696e6e6572206164647265737360501b6044820152606401610984565b5f848152600b60205260408120845160019290869085908110611510576115106128ec565b60200260200101516001600160a01b03166001600160a01b031681526020019081526020015f205f6101000a81548160ff021916908315150217905550600c5f8581526020019081526020015f20838281518110611570576115706128ec565b6020908102919091018101518254600180820185555f9485529290932090920180546001600160a01b0319166001600160a01b03909316929092179091550161146f565b505f838152600d60205260409020805460ff19166001179055600981015460ff161561167957815f815181106115ec576115ec6128ec565b6020026020010151600a5f8581526020019081526020015f205f6101000a8154816001600160a01b0302191690836001600160a01b03160217905550815f8151811061163a5761163a6128ec565b60200260200101516001600160a01b0316837f6cf99b5cf49d428ae67b147a071955a0471c4728429f3aa9f91549039e19c63f60405160405180910390a35b827f3a0fca49ba1095ef171b65aedc9178726f79fff6a9fbaa1b18978c3413ea931483604051610b3f91906125e8565b6002546001600160a01b031633146116d35760405162461bcd60e51b8152600401610984906128b5565b5f8381526005602090815260408220600681018054600181018255908452919092200161170183858361297d565b505f8481526006602052604090205460ff16156117285760048101805460ff191660011790555b837f82f2379f712831a90d9a41d0d4a5844f3d7a1b79427ef1c57250fe48ba1c3cb5848460405161175a929190612a5f565b60405180910390a250505050565b5f81815260056020526040902080546001600160a01b031633146117ce5760405162461bcd60e51b815260206004820152601b60248201527f4f6e6c792073706f6e736f7265652063616e20776974686472617700000000006044820152606401610984565b80600101544210156118415760405162461bcd60e51b815260206004820152603660248201527f43616d706169676e207374696c6c206163746976653a2066756e647320617265604482015275206c6f636b656420756e74696c20646561646c696e6560501b6064820152608401610984565b5f8281526009602052604090205460ff16156118b05760405162461bcd60e51b815260206004820152602860248201527f46756e647320616c72656164792077697468647261776e20666f722074686973604482015267081c1c9bda9958dd60c21b6064820152608401610984565b5f828152600d602052604090205460ff166119195760405162461bcd60e51b8152602060048201526024808201527f546f702d4b2073706f6e736f7273206e6f7420736574206279206f7261636c65604482015263081e595d60e21b6064820152608401610984565b5f828152600c6020526040902080546119745760405162461bcd60e51b815260206004820152601960248201527f4e6f2077696e6e696e672073706f6e736f727320666f756e64000000000000006044820152606401610984565b5f805b82548110156119f2575f858152600760205260408120845482908690859081106119a3576119a36128ec565b5f9182526020808320909101546001600160a01b03168352820192909252604001902054905080156119e957826119dc578092506119e9565b6119e6838261204c565b92505b50600101611977565b5080611a375760405162461bcd60e51b81526020600482015260146024820152734e6f2066756e647320746f20776974686472617760601b6044820152606401610984565b5f848152600960205260409020805460ff1916600190811790915554611a679082906001600160a01b0316611f7b565b6001548354604051632df5f6bf60e11b81526001600160a01b03918216600482015260248101849052911690635bebed7e906044016020604051808303815f875af1158015611ab8573d5f5f3e3d5ffd5b505050506040513d601f19601f82011682018060405250810190611adc9190612900565b5082546040516001600160a01b039091169085907f6141b54b56b8a52a8c6f5cd2a857f6117b18ffbf4d46bd3106f300a839cbf5ea905f90a350505050565b5f5f8c11611b625760405162461bcd60e51b815260206004820152601460248201527304475726174696f6e206d757374206265203e20360641b6044820152606401610984565b5f8b60ff1611611ba85760405162461bcd60e51b81526020600482015260116024820152700546f70204b206d757374206265203e203607c1b6044820152606401610984565b603c821015611c045760405162461bcd60e51b815260206004820152602260248201527f436f6f6c646f776e206d757374206265206174206c656173742031206d696e75604482015261746560f01b6064820152608401610984565b8315611c69578a60ff16600114611c695760405162461bcd60e51b815260206004820152602360248201527f41756374696f6e206d6f646520726571756972657320746f704b4c696d6974206044820152623d203160e81b6064820152608401610984565b600480545f9182611c7983612a7a565b9091555060408051610180810190915233815290915060208101611c9e8f603c612a92565b611ca890426128a2565b81526020018d60ff1681526020018c8c8080601f0160208091040260200160405190810160405280939291908181526020018383808284375f920182905250938552505050602080830182905260408084018390528051838152918201905260609092019190611d28565b6060815260200190600190039081611d135790505b5081526020018a8a8080601f0160208091040260200160405190810160405280939291908181526020018383808284375f92019190915250505090825250604080516020601f8b0181900481028201810190925289815291810191908a908a90819084018382808284375f92019190915250505090825250861515602082015260400186611db6575f611db8565b855b815260209081018590525f83815260058252604090819020835181546001600160a01b0319166001600160a01b0390911617815591830151600183015582015160028201805460ff191660ff90921691909117905560608201516003820190611e219082612aa9565b50608082015160048201805460ff191691151591909117905560a0820151600582015560c08201518051611e5f9160068401916020909101906122c0565b5060e08201516007820190611e749082612aa9565b506101008201516008820190611e8a9082612aa9565b5061012082015160098201805460ff1916911515919091179055610140820151600a82015561016090910151600b909101555f81815260056020908152604091829020600101549151918252339183917f1b9d0946c0a6f3b3a57782ad25a4553bd5bcf1f1a252068eafc757670aad573a910160405180910390a39c9b505050505050505050505050565b611f1d611f4f565b6001600160a01b038116611f4657604051631e4fbdf760e01b81525f6004820152602401610984565b61091281611f89565b5f546001600160a01b03163314610f2b5760405163118cdaa760e01b8152336004820152602401610984565b611f8582826120ee565b5050565b5f80546001600160a01b038381166001600160a01b0319831681178455604051919092169283917f8be0079c531659141344cd1fd0a4f28419497f9722a3daafe3b4186f6b6457e09190a35050565b5f83611fe2612172565b6001600160a01b031663d0571e428233878760236040518663ffffffff1660e01b8152600401612016959493929190612b78565b5f604051808303815f87803b15801561202d575f5ffd5b505af115801561203f573d5f5f3e3d5ffd5b5092979650505050505050565b5f612055612172565b6001600160a01b031663d1de592a61206e856023612180565b612079856023612180565b6040516001600160e01b031960e085901b168152600481019290925260248201526044016020604051808303815f875af11580156120b9573d5f5f3e3d5ffd5b505050506040513d601f19601f820116820180604052508101906120dd9190612900565b9392505050565b611f858282612196565b6121028260061a60f81b600160f81b161590565b611f855761210e612172565b604051630f8e573b60e21b8152600481018490526001600160a01b0383811660248301529190911690633e395cec906044015b5f604051808303815f87803b158015612158575f5ffd5b505af115801561216a573d5f5f3e3d5ffd5b505050505050565b5f61217b6121ed565b905090565b5f821561218d57826120dd565b6120dd82612282565b6121aa8260061a60f81b600160f81b161590565b611f85576121b6612172565b604051635ca4b5b160e11b8152600481018490526001600160a01b038381166024830152919091169063b9496b6290604401612141565b5f4661a4b1036121fc57505f90565b4662066eee0361221f575073d464b198f06756a1d00be223634b85e0a731c22990565b46617a690361224157507339847aeba923cc7367d4684194091d022b3f854890565b60405162461bcd60e51b81526020600482015260166024820152752737bc1d102ab739bab83837b93a32b21031b430b4b760511b6044820152606401610984565b5f602882606381111561229757612297612b64565b60f81b6001600160f81b031916901c60084660e01b6001600160e01b031916901c179050919050565b828054828255905f5260205f20908101928215612304579160200282015b8281111561230457825182906122f49082612aa9565b50916020019190600101906122de565b50612310929150612314565b5090565b80821115612310575f6123278282612330565b50600101612314565b50805461233c90612856565b5f825580601f1061234b575050565b601f0160209004905f5260205f209081019061091291905b80821115612310575f8155600101612363565b5f60208284031215612386575f5ffd5b5035919050565b5f81518084528060208401602086015e5f602082860101526020601f19601f83011685010191505092915050565b60018060a01b038c1681528a602082015260ff8a16604082015261016060608201525f6123ec61016083018b61238d565b89151560808401528860a084015282810360c084015261240c818961238d565b905082810360e0840152612420818861238d565b91505061243261010083018615159052565b61012082019390935261014001529998505050505050505050565b5f602082016020835280845180835260408501915060408160051b8601019250602086015f5b828110156124a457603f1987860301845261248f85835161238d565b94506020938401939190910190600101612473565b50929695505050505050565b8015158114610912575f5ffd5b80356124c8816124b0565b919050565b5f5f604083850312156124de575f5ffd5b8235915060208301356124f0816124b0565b809150509250929050565b80356001600160a01b03811681146124c8575f5ffd5b5f5f60408385031215612522575f5ffd5b82359150612532602084016124fb565b90509250929050565b5f6020828403121561254b575f5ffd5b6120dd826124fb565b5f5f83601f840112612564575f5ffd5b50813567ffffffffffffffff81111561257b575f5ffd5b602083019150836020828501011115612592575f5ffd5b9250929050565b5f5f5f5f606085870312156125ac575f5ffd5b8435935060208501359250604085013567ffffffffffffffff8111156125d0575f5ffd5b6125dc87828801612554565b95989497509550505050565b602080825282518282018190525f918401906040840190835b818110156126285783516001600160a01b0316835260209384019390920191600101612601565b509095945050505050565b634e487b7160e01b5f52604160045260245ffd5b5f5f60408385031215612658575f5ffd5b82359150602083013567ffffffffffffffff811115612675575f5ffd5b8301601f81018513612685575f5ffd5b803567ffffffffffffffff81111561269f5761269f612633565b8060051b604051601f19603f830116810181811067ffffffffffffffff821117156126cc576126cc612633565b6040529182526020818401810192908101888411156126e9575f5ffd5b6020850194505b8385101561270f57612701856124fb565b8152602094850194016126f0565b50809450505050509250929050565b5f5f5f60408486031215612730575f5ffd5b83359250602084013567ffffffffffffffff81111561274d575f5ffd5b61275986828701612554565b9497909650939450505050565b803560ff811681146124c8575f5ffd5b5f5f5f5f5f5f5f5f5f5f5f6101008c8e031215612791575f5ffd5b8b359a506127a160208d01612766565b995060408c013567ffffffffffffffff8111156127bc575f5ffd5b6127c88e828f01612554565b909a5098505060608c013567ffffffffffffffff8111156127e7575f5ffd5b6127f38e828f01612554565b90985096505060808c013567ffffffffffffffff811115612812575f5ffd5b61281e8e828f01612554565b9096509450612831905060a08d016124bd565b9a9d999c50979a96999598949750929591949360c0830135935060e090920135919050565b600181811c9082168061286a57607f821691505b60208210810361288857634e487b7160e01b5f52602260045260245ffd5b50919050565b634e487b7160e01b5f52601160045260245ffd5b8082018082111561127f5761127f61288e565b6020808252601d908201527f4f6e6c7920544545204f7261636c652063616e2063616c6c2074686973000000604082015260600190565b634e487b7160e01b5f52603260045260245ffd5b5f60208284031215612910575f5ffd5b5051919050565b5f60208284031215612927575f5ffd5b81516120dd816124b0565b601f821115610bd457805f5260205f20601f840160051c810160208510156129575750805b601f840160051c820191505b81811015612976575f8155600101612963565b5050505050565b67ffffffffffffffff83111561299557612995612633565b6129a9836129a38354612856565b83612932565b5f601f8411600181146129da575f85156129c35750838201355b5f19600387901b1c1916600186901b178355612976565b5f83815260208120601f198716915b82811015612a0957868501358255602094850194600190920191016129e9565b5086821015612a25575f1960f88860031b161c19848701351681555b505060018560011b0183555050505050565b81835281816020850137505f828201602090810191909152601f909101601f19169091010190565b602081525f612a72602083018486612a37565b949350505050565b5f60018201612a8b57612a8b61288e565b5060010190565b808202811582820484141761127f5761127f61288e565b815167ffffffffffffffff811115612ac357612ac3612633565b612ad781612ad18454612856565b84612932565b6020601f821160018114612b09575f8315612af25750848201515b5f19600385901b1c1916600184901b178455612976565b5f84815260208120601f198516915b82811015612b385787850151825560209485019460019092019101612b18565b5084821015612b5557868401515f19600387901b60f8161c191681555b50505050600190811b01905550565b634e487b7160e01b5f52602160045260245ffd5b8581526001600160a01b03851660208201526080604082018190525f90612ba29083018587612a37565b905060648310612bc057634e487b7160e01b5f52602160045260245ffd5b826060830152969550505050505056fea264697066735822122097447e4a74a64ef676fb09aec1518a3008c008de9d66a7acb05d5873592012d664736f6c634300081c0033",
  "linkReferences": {},
  "deployedLinkReferences": {},
  "immutableReferences": {},
  "inputSourceName": "project/contracts/FundMePlatform.sol",
  "buildInfoId": "solc-0_8_28-650d0218553681cf7f33d6328492f1e77b640e09"
}