{
  "_format": "hh3-artifact-1",
  "contractName": "FundMeToken",
  "sourceName": "contracts/FundMeToken.sol",
  "abi": [
    {
      "inputs": [
        {
          "internalType": "contract IERC20",
          "name": "usdc",
          "type": "address"
        }
      ],
      "stateMutability": "nonpayable",
      "type": "constructor"
    },
    {
      "inputs": [
        {
          "internalType": "address",
          "name": "receiver",
          "type": "address"
        }
      ],
      "name": "ERC7984InvalidReceiver",
      "type": "error"
    },
    {
      "inputs": [
        {
          "internalType": "address",
          "name": "sender",
          "type": "address"
        }
      ],
      "name": "ERC7984InvalidSender",
      "type": "error"
    },
    {
      "inputs": [],
      "name": "ERC7984TotalSupplyOverflow",
      "type": "error"
    },
    {
      "inputs": [
        {
          "internalType": "address",
          "name": "caller",
          "type": "address"
        }
      ],
      "name": "ERC7984UnauthorizedCaller",
      "type": "error"
    },
    {
      "inputs": [
        {
          "internalType": "address",
          "name": "holder",
          "type": "address"
        },
        {
          "internalType": "address",
          "name": "spender",
          "type": "address"
        }
      ],
      "name": "ERC7984UnauthorizedSpender",
      "type": "error"
    },
    {
      "inputs": [
        {
          "internalType": "euint256",
          "name": "amount",
          "type": "bytes32"
        },
        {
          "internalType": "address",
          "name": "user",
          "type": "address"
        }
      ],
      "name": "ERC7984UnauthorizedUseOfEncryptedAmount",
      "type": "error"
    },
    {
      "inputs": [
        {
          "internalType": "address",
          "name": "holder",
          "type": "address"
        }
      ],
      "name": "ERC7984ZeroBalance",
      "type": "error"
    },
    {
      "inputs": [
        {
          "internalType": "euint256",
          "name": "unwrapRequestId",
          "type": "bytes32"
        }
      ],
      "name": "InvalidUnwrapRequest",
      "type": "error"
    },
    {
      "inputs": [
        {
          "internalType": "bytes",
          "name": "data",
          "type": "bytes"
        }
      ],
      "name": "MalformedDecryptedData",
      "type": "error"
    },
    {
      "inputs": [
        {
          "internalType": "address",
          "name": "token",
          "type": "address"
        }
      ],
      "name": "SafeERC20FailedOperation",
      "type": "error"
    },
    {
      "anonymous": false,
      "inputs": [
        {
          "indexed": true,
          "internalType": "address",
          "name": "from",
          "type": "address"
        },
        {
          "indexed": true,
          "internalType": "address",
          "name": "to",
          "type": "address"
        },
        {
          "indexed": true,
          "internalType": "euint256",
          "name": "amount",
          "type": "bytes32"
        }
      ],
      "name": "ConfidentialTransfer",
      "type": "event"
    },
    {
      "anonymous": false,
      "inputs": [
        {
          "indexed": true,
          "internalType": "address",
          "name": "holder",
          "type": "address"
        },
        {
          "indexed": true,
          "internalType": "address",
          "name": "operator",
          "type": "address"
        },
        {
          "indexed": false,
          "internalType": "uint48",
          "name": "until",
          "type": "uint48"
        }
      ],
      "name": "OperatorSet",
      "type": "event"
    },
    {
      "anonymous": false,
      "inputs": [
        {
          "indexed": true,
          "internalType": "address",
          "name": "receiver",
          "type": "address"
        },
        {
          "indexed": false,
          "internalType": "euint256",
          "name": "encryptedAmount",
          "type": "bytes32"
        },
        {
          "indexed": false,
          "internalType": "uint256",
          "name": "plaintextAmount",
          "type": "uint256"
        }
      ],
      "name": "UnwrapFinalized",
      "type": "event"
    },
    {
      "anonymous": false,
      "inputs": [
        {
          "indexed": true,
          "internalType": "address",
          "name": "receiver",
          "type": "address"
        },
        {
          "indexed": false,
          "internalType": "euint256",
          "name": "amount",
          "type": "bytes32"
        }
      ],
      "name": "UnwrapRequested",
      "type": "event"
    },
    {
      "inputs": [
        {
          "internalType": "address",
          "name": "account",
          "type": "address"
        }
      ],
      "name": "confidentialBalanceOf",
      "outputs": [
        {
          "internalType": "euint256",
          "name": "",
          "type": "bytes32"
        }
      ],
      "stateMutability": "view",
      "type": "function"
    },
    {
      "inputs": [],
      "name": "confidentialTotalSupply",
      "outputs": [
        {
          "internalType": "euint256",
          "name": "",
          "type": "bytes32"
        }
      ],
      "stateMutability": "view",
      "type": "function"
    },
    {
      "inputs": [
        {
          "internalType": "address",
          "name": "to",
          "type": "address"
        },
        {
          "internalType": "externalEuint256",
          "name": "encryptedAmount",
          "type": "bytes32"
        },
        {
          "internalType": "bytes",
          "name": "inputProof",
          "type": "bytes"
        }
      ],
      "name": "confidentialTransfer",
      "outputs": [
        {
          "internalType": "euint256",
          "name": "",
          "type": "bytes32"
        }
      ],
      "stateMutability": "nonpayable",
      "type": "function"
    },
    {
      "inputs": [
        {
          "internalType": "address",
          "name": "to",
          "type": "address"
        },
        {
          "internalType": "euint256",
          "name": "amount",
          "type": "bytes32"
        }
      ],
      "name": "confidentialTransfer",
      "outputs": [
        {
          "internalType": "euint256",
          "name": "",
          "type": "bytes32"
        }
      ],
      "stateMutability": "nonpayable",
      "type": "function"
    },
    {
      "inputs": [
        {
          "internalType": "address",
          "name": "to",
          "type": "address"
        },
        {
          "internalType": "euint256",
          "name": "amount",
          "type": "bytes32"
        },
        {
          "internalType": "bytes",
          "name": "data",
          "type": "bytes"
        }
      ],
      "name": "confidentialTransferAndCall",
      "outputs": [
        {
          "internalType": "euint256",
          "name": "transferred",
          "type": "bytes32"
        }
      ],
      "stateMutability": "nonpayable",
      "type": "function"
    },
    {
      "inputs": [
        {
          "internalType": "address",
          "name": "to",
          "type": "address"
        },
        {
          "internalType": "externalEuint256",
          "name": "encryptedAmount",
          "type": "bytes32"
        },
        {
          "internalType": "bytes",
          "name": "inputProof",
          "type": "bytes"
        },
        {
          "internalType": "bytes",
          "name": "data",
          "type": "bytes"
        }
      ],
      "name": "confidentialTransferAndCall",
      "outputs": [
        {
          "internalType": "euint256",
          "name": "transferred",
          "type": "bytes32"
        }
      ],
      "stateMutability": "nonpayable",
      "type": "function"
    },
    {
      "inputs": [
        {
          "internalType": "address",
          "name": "from",
          "type": "address"
        },
        {
          "internalType": "address",
          "name": "to",
          "type": "address"
        },
        {
          "internalType": "externalEuint256",
          "name": "encryptedAmount",
          "type": "bytes32"
        },
        {
          "internalType": "bytes",
          "name": "inputProof",
          "type": "bytes"
        }
      ],
      "name": "confidentialTransferFrom",
      "outputs": [
        {
          "internalType": "euint256",
          "name": "",
          "type": "bytes32"
        }
      ],
      "stateMutability": "nonpayable",
      "type": "function"
    },
    {
      "inputs": [
        {
          "internalType": "address",
          "name": "from",
          "type": "address"
        },
        {
          "internalType": "address",
          "name": "to",
          "type": "address"
        },
        {
          "internalType": "euint256",
          "name": "amount",
          "type": "bytes32"
        }
      ],
      "name": "confidentialTransferFrom",
      "outputs": [
        {
          "internalType": "euint256",
          "name": "",
          "type": "bytes32"
        }
      ],
      "stateMutability": "nonpayable",
      "type": "function"
    },
    {
      "inputs": [
        {
          "internalType": "address",
          "name": "from",
          "type": "address"
        },
        {
          "internalType": "address",
          "name": "to",
          "type": "address"
        },
        {
          "internalType": "externalEuint256",
          "name": "encryptedAmount",
          "type": "bytes32"
        },
        {
          "internalType": "bytes",
          "name": "inputProof",
          "type": "bytes"
        },
        {
          "internalType": "bytes",
          "name": "data",
          "type": "bytes"
        }
      ],
      "name": "confidentialTransferFromAndCall",
      "outputs": [
        {
          "internalType": "euint256",
          "name": "transferred",
          "type": "bytes32"
        }
      ],
      "stateMutability": "nonpayable",
      "type": "function"
    },
    {
      "inputs": [
        {
          "internalType": "address",
          "name": "from",
          "type": "address"
        },
        {
          "internalType": "address",
          "name": "to",
          "type": "address"
        },
        {
          "internalType": "euint256",
          "name": "amount",
          "type": "bytes32"
        },
        {
          "internalType": "bytes",
          "name": "data",
          "type": "bytes"
        }
      ],
      "name": "confidentialTransferFromAndCall",
      "outputs": [
        {
          "internalType": "euint256",
          "name": "transferred",
          "type": "bytes32"
        }
      ],
      "stateMutability": "nonpayable",
      "type": "function"
    },
    {
      "inputs": [],
      "name": "contractURI",
      "outputs": [
        {
          "internalType": "string",
          "name": "",
          "type": "string"
        }
      ],
      "stateMutability": "view",
      "type": "function"
    },
    {
      "inputs": [],
      "name": "decimals",
      "outputs": [
        {
          "internalType": "uint8",
          "name": "",
          "type": "uint8"
        }
      ],
      "stateMutability": "view",
      "type": "function"
    },
    {
      "inputs": [
        {
          "internalType": "euint256",
          "name": "unwrapRequestId",
          "type": "bytes32"
        },
        {
          "internalType": "bytes",
          "name": "decryptedAmountAndProof",
          "type": "bytes"
        }
      ],
      "name": "finalizeUnwrap",
      "outputs": [],
      "stateMutability": "nonpayable",
      "type": "function"
    },
    {
      "inputs": [],
      "name": "inferredTotalSupply",
      "outputs": [
        {
          "internalType": "uint256",
          "name": "",
          "type": "uint256"
        }
      ],
      "stateMutability": "view",
      "type": "function"
    },
    {
      "inputs": [
        {
          "internalType": "address",
          "name": "holder",
          "type": "address"
        },
        {
          "internalType": "address",
          "name": "spender",
          "type": "address"
        }
      ],
      "name": "isOperator",
      "outputs": [
        {
          "internalType": "bool",
          "name": "",
          "type": "bool"
        }
      ],
      "stateMutability": "view",
      "type": "function"
    },
    {
      "inputs": [],
      "name": "maxTotalSupply",
      "outputs": [
        {
          "internalType": "uint256",
          "name": "",
          "type": "uint256"
        }
      ],
      "stateMutability": "view",
      "type": "function"
    },
    {
      "inputs": [],
      "name": "name",
      "outputs": [
        {
          "internalType": "string",
          "name": "",
          "type": "string"
        }
      ],
      "stateMutability": "view",
      "type": "function"
    },
    {
      "inputs": [
        {
          "internalType": "address",
          "name": "",
          "type": "address"
        },
        {
          "internalType": "address",
          "name": "from",
          "type": "address"
        },
        {
          "internalType": "uint256",
          "name": "amount",
          "type": "uint256"
        },
        {
          "internalType": "bytes",
          "name": "data",
          "type": "bytes"
        }
      ],
      "name": "onTransferReceived",
      "outputs": [
        {
          "internalType": "bytes4",
          "name": "",
          "type": "bytes4"
        }
      ],
      "stateMutability": "nonpayable",
      "type": "function"
    },
    {
      "inputs": [
        {
          "internalType": "address",
          "name": "operator",
          "type": "address"
        },
        {
          "internalType": "uint48",
          "name": "until",
          "type": "uint48"
        }
      ],
      "name": "setOperator",
      "outputs": [],
      "stateMutability": "nonpayable",
      "type": "function"
    },
    {
      "inputs": [
        {
          "internalType": "bytes4",
          "name": "interfaceId",
          "type": "bytes4"
        }
      ],
      "name": "supportsInterface",
      "outputs": [
        {
          "internalType": "bool",
          "name": "",
          "type": "bool"
        }
      ],
      "stateMutability": "view",
      "type": "function"
    },
    {
      "inputs": [],
      "name": "symbol",
      "outputs": [
        {
          "internalType": "string",
          "name": "",
          "type": "string"
        }
      ],
      "stateMutability": "view",
      "type": "function"
    },
    {
      "inputs": [],
      "name": "underlying",
      "outputs": [
        {
          "internalType": "address",
          "name": "",
          "type": "address"
        }
      ],
      "stateMutability": "view",
      "type": "function"
    },
    {
      "inputs": [
        {
          "internalType": "address",
          "name": "from",
          "type": "address"
        },
        {
          "internalType": "address",
          "name": "to",
          "type": "address"
        },
        {
          "internalType": "externalEuint256",
          "name": "encryptedAmount",
          "type": "bytes32"
        },
        {
          "internalType": "bytes",
          "name": "inputProof",
          "type": "bytes"
        }
      ],
      "name": "unwrap",
      "outputs": [
        {
          "internalType": "euint256",
          "name": "",
          "type": "bytes32"
        }
      ],
      "stateMutability": "nonpayable",
      "type": "function"
    },
    {
      "inputs": [
        {
          "internalType": "address",
          "name": "from",
          "type": "address"
        },
        {
          "internalType": "address",
          "name": "to",
          "type": "address"
        },
        {
          "internalType": "euint256",
          "name": "amount",
          "type": "bytes32"
        }
      ],
      "name": "unwrap",
      "outputs": [
        {
          "internalType": "euint256",
          "name": "",
          "type": "bytes32"
        }
      ],
      "stateMutability": "nonpayable",
      "type": "function"
    },
    {
      "inputs": [
        {
          "internalType": "euint256",
          "name": "unwrapAmount",
          "type": "bytes32"
        }
      ],
      "name": "unwrapRequester",
      "outputs": [
        {
          "internalType": "address",
          "name": "",
          "type": "address"
        }
      ],
      "stateMutability": "view",
      "type": "function"
    },
    {
      "inputs": [
        {
          "internalType": "address",
          "name": "to",
          "type": "address"
        },
        {
          "internalType": "uint256",
          "name": "amount",
          "type": "uint256"
        }
      ],
      "name": "wrap",
      "outputs": [
        {
          "internalType": "euint256",
          "name": "",
          "type": "bytes32"
        }
      ],
      "stateMutability": "nonpayable",
      "type": "function"
    }
  ],
  "bytecode": "0x60c060405234801561000f575f5ffd5b5060405161255338038061255383398101604081905261002e916101f9565b806040518060400160405280601381526020017f436f6e666964656e7469616c2046554e444d45000000000000000000000000008152506040518060400160405280600681526020016546554e444d4560d01b81525060405180602001604052805f8152506100a48383836100cb60201b60201c565b5050506001600160a01b0381166080526100bd8161013c565b60ff1660a052506103ab9050565b7fb419a3e8264d03c5da9315fb9617f069307274561d78c35809e10a1cfb7156007fb419a3e8264d03c5da9315fb9617f069307274561d78c35809e10a1cfb71560361011785826102bb565b506004810161012684826102bb565b506005810161013583826102bb565b5050505050565b60408051600481526024810182526020810180516001600160e01b031663313ce56760e01b17905290515f91829182916001600160a01b038616916101819190610375565b5f60405180830381855afa9150503d805f81146101b9576040519150601f19603f3d011682016040523d82523d5f602084013e6101be565b606091505b50915091508180156101d1575080516020145b156101f257808060200190518101906101ea919061038b565b949350505050565b60126101ea565b5f60208284031215610209575f5ffd5b81516001600160a01b038116811461021f575f5ffd5b9392505050565b634e487b7160e01b5f52604160045260245ffd5b600181811c9082168061024e57607f821691505b60208210810361026c57634e487b7160e01b5f52602260045260245ffd5b50919050565b601f8211156102b657805f5260205f20601f840160051c810160208510156102975750805b601f840160051c820191505b81811015610135575f81556001016102a3565b505050565b81516001600160401b038111156102d4576102d4610226565b6102e8816102e2845461023a565b84610272565b6020601f82116001811461031a575f83156103035750848201515b5f19600385901b1c1916600184901b178455610135565b5f84815260208120601f198516915b828110156103495787850151825560209485019460019092019101610329565b508482101561036657868401515f19600387901b60f8161c191681555b50505050600190811b01905550565b5f82518060208501845e5f920191825250919050565b5f6020828403121561039b575f5ffd5b815160ff8116811461021f575f5ffd5b60805160a05161216b6103e85f395f6101f301525f81816102db015281816106e501528181610762015281816108950152610b1b015261216b5ff3fe608060405234801561000f575f5ffd5b5060043610610187575f3560e01c806388a7ca5c116100d9578063de64211911610093578063e8c15fd41161006e578063e8c15fd4146103c1578063eb3155b5146103d4578063eee8a0e8146103e7578063f89d30b11461040f575f5ffd5b8063de64211914610393578063e064b9bb146103a6578063e8a3d485146103b9575f5ffd5b806388a7ca5c1461031357806395d89b411461033f578063b6363cf214610347578063bf376c7a1461035a578063c7b8a75e1461036d578063d4febb9614610380575f5ffd5b806334c45743116101445780635bebed7e1161011f5780635bebed7e1461029e5780635bf4ef06146102b157806365f94fdb146102c45780636f307dc3146102d9575f5ffd5b806334c4574314610251578063537d3c50146102645780635409522714610277575f5ffd5b806301ffc9a71461018b57806306fdde03146101b35780632ab4d052146101c85780632fb74e62146101d9578063313ce567146101ec578063344ff1011461021d575b5f5ffd5b61019e610199366004611a59565b610417565b60405190151581526020015b60405180910390f35b6101bb61045c565b6040516101aa9190611aae565b5f195b6040519081526020016101aa565b6101cb6101e7366004611b19565b61051c565b60405160ff7f00000000000000000000000000000000000000000000000000000000000000001681526020016101aa565b6101cb61022b366004611b6f565b6001600160a01b03165f9081525f5160206121165f395f51905f52602052604090205490565b6101cb61025f366004611b88565b61053d565b6101cb610272366004611b19565b6105b1565b7fb419a3e8264d03c5da9315fb9617f069307274561d78c35809e10a1cfb715602546101cb565b6101cb6102ac366004611c21565b61060a565b6101cb6102bf366004611c49565b61065c565b6102d76102d2366004611cb3565b61067e565b005b7f00000000000000000000000000000000000000000000000000000000000000005b6040516001600160a01b0390911681526020016101aa565b610326610321366004611c49565b610756565b6040516001600160e01b031990911681526020016101aa565b6101bb6107f3565b61019e610355366004611cfb565b610831565b6101cb610368366004611c21565b61088f565b6101cb61037b366004611c49565b6108d6565b6102d761038e366004611d2c565b61096f565b6101cb6103a1366004611d6b565b61097e565b6101cb6103b4366004611c49565b6109a5565b6101bb610a03565b6101cb6103cf366004611df4565b610a41565b6101cb6103e2366004611df4565b610a8c565b6102fb6103f5366004611e2e565b5f908152602081905260409020546001600160a01b031690565b6101cb610b18565b5f6001600160e01b03198216633a0aaebb60e01b148061044757506001600160e01b03198216632229f29760e21b145b80610456575061045682610ba7565b92915050565b7fb419a3e8264d03c5da9315fb9617f069307274561d78c35809e10a1cfb71560380546060915f5160206121165f395f51905f529161049a90611e45565b80601f01602080910402602001604051908101604052809291908181526020018280546104c690611e45565b80156105115780601f106104e857610100808354040283529160200191610511565b820191905f5260205f20905b8154815290600101906020018083116104f457829003601f168201915b505050505091505090565b5f610532338661052d878787610bdb565b610c4f565b90505b949350505050565b5f6105488833610831565b8833909161058157604051630f3e596760e31b81526001600160a01b039283166004820152911660248201526044015b60405180910390fd5b505061059a8888610593898989610bdb565b8686610cc5565b90506105a68133610d1c565b979650505050505050565b5f6105bc8433610d26565b843390916105ef576040516367cfe80560e01b815260048101929092526001600160a01b03166024820152604401610578565b50506105fe3386868686610cc5565b90506105358133610d1c565b5f6106158233610d26565b82339091610648576040516367cfe80560e01b815260048101929092526001600160a01b03166024820152604401610578565b5050610655338484610c4f565b9392505050565b5f610672868661066d878787610bdb565b610da0565b90505b95945050505050565b5f838152602081905260409020546001600160a01b031683816106b7576040516368b187c760e11b815260040161057891815260200190565b505f84815260208190526040812080546001600160a01b03191690556106de858585610ec5565b905061070b7f00000000000000000000000000000000000000000000000000000000000000008383610f70565b60408051868152602081018390526001600160a01b038416917f387ce7199af53be9f77ab809cfadd7a3ba121ba687c4059d4f55a0a4a8d5ecad910160405180910390a25050505050565b5f336001600160a01b037f00000000000000000000000000000000000000000000000000000000000000001681146107ad5760405163782c6ffd60e01b81526001600160a01b039091166004820152602401610578565b505f601483106107c9576107c18385611e7d565b60601c6107cb565b855b90506107df816107da87610faa565b611024565b50632229f29760e21b979650505050505050565b7fb419a3e8264d03c5da9315fb9617f069307274561d78c35809e10a1cfb71560480546060915f5160206121165f395f51905f529161049a90611e45565b5f5f5160206121165f395f51905f526001600160a01b03848116908416148061053557506001600160a01b038085165f90815260018301602090815260408083209387168352929052205465ffffffffffff16421115949350505050565b5f6108bc7f0000000000000000000000000000000000000000000000000000000000000000333085611065565b5f6108ca846107da85610faa565b90506106558133610d1c565b5f6108e18433610d26565b84339091610914576040516367cfe80560e01b815260048101929092526001600160a01b03166024820152604401610578565b50506109208633610831565b8633909161095457604051630f3e596760e31b81526001600160a01b03928316600482015291166024820152604401610578565b50506109638686868686610cc5565b90506106758133610d1c565b61097a3383836110a1565b5050565b5f61098f3388610593898989610bdb565b905061099b8133610d1c565b9695505050505050565b5f6109b08633610831565b863390916109e457604051630f3e596760e31b81526001600160a01b03928316600482015291166024820152604401610578565b50505f6109f7878761052d888888610bdb565b90506106728133610d1c565b7fb419a3e8264d03c5da9315fb9617f069307274561d78c35809e10a1cfb71560580546060915f5160206121165f395f51905f529161049a90611e45565b5f610a4c8233610d26565b82339091610a7f576040516367cfe80560e01b815260048101929092526001600160a01b03166024820152604401610578565b5050610535848484610da0565b5f610a978233610d26565b82339091610aca576040516367cfe80560e01b815260048101929092526001600160a01b03166024820152604401610578565b5050610ad68433610831565b84339091610b0a57604051630f3e596760e31b81526001600160a01b03928316600482015291166024820152604401610578565b50505f6105fe858585610c4f565b5f7f00000000000000000000000000000000000000000000000000000000000000006040516370a0823160e01b81523060048201526001600160a01b0391909116906370a0823190602401602060405180830381865afa158015610b7e573d5f5f3e3d5ffd5b505050506040513d601f19601f82011682018060405250810190610ba29190611eca565b905090565b5f6001600160e01b031982166312563ca960e21b148061045657506301ffc9a760e01b6001600160e01b0319831614610456565b5f83610be5611149565b6001600160a01b031663d0571e428233878760236040518663ffffffff1660e01b8152600401610c19959493929190611f3d565b5f604051808303815f87803b158015610c30575f5ffd5b505af1158015610c42573d5f5f3e3d5ffd5b5092979650505050505050565b5f806001600160a01b038516610c845760405163ee457ebf60e01b81526001600160a01b039091166004820152602401610578565b505f6001600160a01b038416610cb957604051638d51880160e01b81526001600160a01b039091166004820152602401610578565b50610535848484611152565b5f5f610cd2878787610c4f565b90505f610ce3338989858989611174565b90505f610d03888a610cfe85610cf85f610faa565b8861126c565b611152565b9050610d0f838261130f565b9998505050505050505050565b61097a82826113a0565b5f610d2f611149565b6040516382027b6d60e01b8152600481018590526001600160a01b03848116602483015291909116906382027b6d90604401602060405180830381865afa158015610d7c573d5f5f3e3d5ffd5b505050506040513d601f19601f820116820180604052508101906106559190611f76565b5f826001600160a01b038116610dd557604051638d51880160e01b81526001600160a01b039091166004820152602401610578565b506001600160a01b038416331480610df25750610df28433610831565b84339091610e2657604051630f3e596760e31b81526001600160a01b03928316600482015291166024820152604401610578565b50505f610e338584611424565b9050610e3e81611465565b5f818152602081905260409020546001600160a01b031615610e6257610e62611f95565b5f818152602081815260409182902080546001600160a01b0319166001600160a01b03881690811790915591518381527f77d02d353c5629272875d11f1b34ec4c65d7430b075575b78cd2502034c469ee910160405180910390a2949350505050565b5f5f610ecf611149565b6001600160a01b0316634dc752ec8686866040518463ffffffff1660e01b8152600401610efe93929190611fa9565b5f60405180830381865afa158015610f18573d5f5f3e3d5ffd5b505050506040513d5f823e601f3d908101601f19168201604052610f3f9190810190611fd6565b905080516020148190610f6657604051632940888960e21b81526004016105789190611aae565b5061067581612089565b610f7d83838360016114ca565b610fa557604051635274afe760e01b81526001600160a01b0384166004820152602401610578565b505050565b5f610fb3611149565b60405163d56497c360e01b81526001600160a01b03919091169063d56497c390610fe49085906023906004016120ac565b6020604051808303815f875af1158015611000573d5f5f3e3d5ffd5b505050506040513d601f19601f820116820180604052508101906104569190611eca565b5f806001600160a01b03841661105957604051638d51880160e01b81526001600160a01b039091166004820152602401610578565b506106555f8484611152565b61107384848484600161152c565b61109b57604051635274afe760e01b81526001600160a01b0385166004820152602401610578565b50505050565b6001600160a01b038381165f8181527fb419a3e8264d03c5da9315fb9617f069307274561d78c35809e10a1cfb7156016020908152604080832094871680845294825291829020805465ffffffffffff191665ffffffffffff8716908117909155825190815291515f5160206121165f395f51905f529493927f921a218a75d18e8ec5704851e6b234a85725b21a2521ce889622c35dedc1fa1292908290030190a350505050565b5f610ba2611599565b5f6001600160a01b0384166111695761116961162e565b610535848484611659565b5f846001600160a01b03163b5f03611197576111906001611863565b905061099b565b6040516346083bfd60e01b81526001600160a01b038616906346083bfd906111cb908a908a908990899089906004016120c0565b6020604051808303815f875af1925050508015611205575060408051601f3d908101601f1916820190925261120291810190611eca565b60015b611190573d808015611232576040519150601f19603f3d011682016040523d82523d5f602084013e611237565b606091505b5080515f0361126457604051638d51880160e01b81526001600160a01b0387166004820152602401610578565b805181602001fd5b5f611275611149565b6001600160a01b031663973ab10b61128d865f6118ae565b6112988660236118ae565b6112a38660236118ae565b6040516001600160e01b031960e086901b1681526004810193909352602483019190915260448201526064016020604051808303815f875af11580156112eb573d5f5f3e3d5ffd5b505050506040513d601f19601f820116820180604052508101906105359190611eca565b5f611318611149565b6001600160a01b03166341aa00806113318560236118ae565b61133c8560236118ae565b6040516001600160e01b031960e085901b168152600481019290925260248201526044016020604051808303815f875af115801561137c573d5f5f3e3d5ffd5b505050506040513d601f19601f820116820180604052508101906106559190611eca565b6113b48260061a60f81b600160f81b161590565b61097a576113c0611149565b604051630f8e573b60e21b8152600481018490526001600160a01b0383811660248301529190911690633e395cec906044015b5f604051808303815f87803b15801561140a575f5ffd5b505af115801561141c573d5f5f3e3d5ffd5b505050505050565b5f806001600160a01b0384166114595760405163ee457ebf60e01b81526001600160a01b039091166004820152602401610578565b50610655835f84611152565b61146d611149565b6001600160a01b03166369c39d90826040518263ffffffff1660e01b815260040161149a91815260200190565b5f604051808303815f87803b1580156114b1575f5ffd5b505af11580156114c3573d5f5f3e3d5ffd5b5050505050565b60405163a9059cbb60e01b5f8181526001600160a01b038616600452602485905291602083604481808b5af1925060015f51148316611520578383151615611514573d5f823e3d81fd5b5f873b113d1516831692505b60405250949350505050565b6040516323b872dd60e01b5f8181526001600160a01b038781166004528616602452604485905291602083606481808c5af1925060015f5114831661158857838315161561157c573d5f823e3d81fd5b5f883b113d1516831692505b604052505f60605295945050505050565b5f4661a4b1036115a857505f90565b4662066eee036115cb575073d464b198f06756a1d00be223634b85e0a731c22990565b46617a69036115ed57507339847aeba923cc7367d4684194091d022b3f854890565b60405162461bcd60e51b81526020600482015260166024820152752737bc1d102ab739bab83837b93a32b21031b430b4b760511b6044820152606401610578565b5f19611638610b18565b11156116575760405163a9e53fc360e01b815260040160405180910390fd5b565b5f5f5160206121165f395f51905f5281806001600160a01b0387166116b4576116868360020154866118c4565b809250819350505061169d8282856002015461126c565b90506116a881611966565b60028301819055611743565b6001600160a01b0387165f9081526020849052604090205487816116f7576040516317fe473760e21b81526001600160a01b039091166004820152602401610578565b506117028187611973565b909350915061171283838361126c565b915061171d82611966565b6117278289611998565b506001600160a01b0387165f9081526020849052604090208190555b61175682866117515f610faa565b61126c565b93506001600160a01b03861661178b5761177483600201548561130f565b905061177f81611966565b600283018190556117dd565b6001600160a01b0386165f908152602084905260409020546117ad90856119a2565b90506117b881611966565b6117c28187611998565b6001600160a01b0386165f9081526020849052604090208190555b6001600160a01b038716156117f6576117f68488611998565b6001600160a01b0386161561180f5761180f8487611998565b61181884611966565b83866001600160a01b0316886001600160a01b03167f67500e8d0ed826d2194f514dd0d8124f35648ab6e3fb5e6ed867134cffe661e960405160405180910390a45050509392505050565b5f61186c611149565b6001600160a01b031663d56497c383611885575f611888565b60015b6040516001600160e01b031960e084901b168152610fe49160ff16905f906004016120ac565b5f82156118bb5782610655565b610655826119c4565b5f5f5f5f6118d0611149565b6001600160a01b031663f30c42606118e98860236118ae565b6118f48860236118ae565b6040516001600160e01b031960e085901b1681526004810192909252602482015260440160408051808303815f875af1158015611933573d5f5f3e3d5ffd5b505050506040513d601f19601f8201168201806040525081019061195791906120f3565b909450925050505b9250929050565b6119708130611a02565b50565b5f5f5f5f61197f611149565b6001600160a01b03166386fc3bc36118e98860236118ae565b61097a8282611a02565b5f6119ab611149565b6001600160a01b031663d1de592a6113318560236118ae565b5f60288260638111156119d9576119d9611f09565b60f81b6001600160f81b031916901c60084660e01b6001600160e01b031916901c179050919050565b611a168260061a60f81b600160f81b161590565b61097a57611a22611149565b604051635ca4b5b160e11b8152600481018490526001600160a01b038381166024830152919091169063b9496b62906044016113f3565b5f60208284031215611a69575f5ffd5b81356001600160e01b031981168114610655575f5ffd5b5f81518084528060208401602086015e5f602082860101526020601f19601f83011685010191505092915050565b602081525f6106556020830184611a80565b80356001600160a01b0381168114611ad6575f5ffd5b919050565b5f5f83601f840112611aeb575f5ffd5b50813567ffffffffffffffff811115611b02575f5ffd5b60208301915083602082850101111561195f575f5ffd5b5f5f5f5f60608587031215611b2c575f5ffd5b611b3585611ac0565b935060208501359250604085013567ffffffffffffffff811115611b57575f5ffd5b611b6387828801611adb565b95989497509550505050565b5f60208284031215611b7f575f5ffd5b61065582611ac0565b5f5f5f5f5f5f5f60a0888a031215611b9e575f5ffd5b611ba788611ac0565b9650611bb560208901611ac0565b955060408801359450606088013567ffffffffffffffff811115611bd7575f5ffd5b611be38a828b01611adb565b909550935050608088013567ffffffffffffffff811115611c02575f5ffd5b611c0e8a828b01611adb565b989b979a50959850939692959293505050565b5f5f60408385031215611c32575f5ffd5b611c3b83611ac0565b946020939093013593505050565b5f5f5f5f5f60808688031215611c5d575f5ffd5b611c6686611ac0565b9450611c7460208701611ac0565b935060408601359250606086013567ffffffffffffffff811115611c96575f5ffd5b611ca288828901611adb565b969995985093965092949392505050565b5f5f5f60408486031215611cc5575f5ffd5b83359250602084013567ffffffffffffffff811115611ce2575f5ffd5b611cee86828701611adb565b9497909650939450505050565b5f5f60408385031215611d0c575f5ffd5b611d1583611ac0565b9150611d2360208401611ac0565b90509250929050565b5f5f60408385031215611d3d575f5ffd5b611d4683611ac0565b9150602083013565ffffffffffff81168114611d60575f5ffd5b809150509250929050565b5f5f5f5f5f5f60808789031215611d80575f5ffd5b611d8987611ac0565b955060208701359450604087013567ffffffffffffffff811115611dab575f5ffd5b611db789828a01611adb565b909550935050606087013567ffffffffffffffff811115611dd6575f5ffd5b611de289828a01611adb565b979a9699509497509295939492505050565b5f5f5f60608486031215611e06575f5ffd5b611e0f84611ac0565b9250611e1d60208501611ac0565b929592945050506040919091013590565b5f60208284031215611e3e575f5ffd5b5035919050565b600181811c90821680611e5957607f821691505b602082108103611e7757634e487b7160e01b5f52602260045260245ffd5b50919050565b80356bffffffffffffffffffffffff198116906014841015611ec3576bffffffffffffffffffffffff196bffffffffffffffffffffffff198560140360031b1b82161691505b5092915050565b5f60208284031215611eda575f5ffd5b5051919050565b81835281816020850137505f828201602090810191909152601f909101601f19169091010190565b634e487b7160e01b5f52602160045260245ffd5b60648110611f3957634e487b7160e01b5f52602160045260245ffd5b9052565b8581526001600160a01b03851660208201526080604082018190525f90611f679083018587611ee1565b905061099b6060830184611f1d565b5f60208284031215611f86575f5ffd5b81518015158114610655575f5ffd5b634e487b7160e01b5f52600160045260245ffd5b838152604060208201525f610532604083018486611ee1565b634e487b7160e01b5f52604160045260245ffd5b5f60208284031215611fe6575f5ffd5b815167ffffffffffffffff811115611ffc575f5ffd5b8201601f8101841361200c575f5ffd5b805167ffffffffffffffff81111561202657612026611fc2565b604051601f8201601f19908116603f0116810167ffffffffffffffff8111828210171561205557612055611fc2565b60405281815282820160200186101561206c575f5ffd5b8160208401602083015e5f91810160200191909152949350505050565b80516020808301519190811015611e77575f1960209190910360031b1b16919050565b828152604081016106556020830184611f1d565b6001600160a01b03868116825285166020820152604081018490526080606082018190525f906105a69083018486611ee1565b5f5f60408385031215612104575f5ffd5b50508051602090910151909290915056feb419a3e8264d03c5da9315fb9617f069307274561d78c35809e10a1cfb715600a2646970667358221220bc1b0221af6bb04e4d3b4354bde0bb46f62bba7e31c5e9a677be357e04a2b84f64736f6c634300081c0033",
  "linkReferences": {},
  "deployedLinkReferences": {},
  "immutableReferences": {
    "1512": [
      {
        "length": 32,
        "start": 731
      },
      {
        "length": 32,
        "start": 1765
      },
      {
        "length": 32,
        "start": 1890
      },
      {
        "length": 32,
        "start": 2197
      },
      {
        "length": 32,
        "start": 2843
      }
    ],
    "1514": [
      {
        "length": 32,
        "start": 499
      }
    ]
  },
  "inputSourceName": "project/contracts/FundMeToken.sol",
  "buildInfoId": "solc-0_8_28-6e76404a7bacdbd4f76713dfa86d5ca4e382c8b9"
}