{
  "_format": "hh3-artifact-1",
  "contractName": "FundMePlatform",
  "sourceName": "contracts/FundMePlatform.sol",
  "abi": [
    {
      "inputs": [
        {
          "internalType": "address",
          "name": "_fundMeTokenAddress",
          "type": "address"
        }
      ],
      "stateMutability": "nonpayable",
      "type": "constructor"
    },
    {
      "inputs": [
        {
          "internalType": "address",
          "name": "owner",
          "type": "address"
        }
      ],
      "name": "OwnableInvalidOwner",
      "type": "error"
    },
    {
      "inputs": [
        {
          "internalType": "address",
          "name": "account",
          "type": "address"
        }
      ],
      "name": "OwnableUnauthorizedAccount",
      "type": "error"
    },
    {
      "anonymous": false,
      "inputs": [
        {
          "indexed": true,
          "internalType": "uint256",
          "name": "projectId",
          "type": "uint256"
        },
        {
          "indexed": false,
          "internalType": "string",
          "name": "ipfsHash",
          "type": "string"
        }
      ],
      "name": "LeaderboardUpdated",
      "type": "event"
    },
    {
      "anonymous": false,
      "inputs": [
        {
          "indexed": true,
          "internalType": "address",
          "name": "previousOwner",
          "type": "address"
        },
        {
          "indexed": true,
          "internalType": "address",
          "name": "newOwner",
          "type": "address"
        }
      ],
      "name": "OwnershipTransferred",
      "type": "event"
    },
    {
      "anonymous": false,
      "inputs": [
        {
          "indexed": true,
          "internalType": "uint256",
          "name": "projectId",
          "type": "uint256"
        },
        {
          "indexed": true,
          "internalType": "address",
          "name": "sponsoree",
          "type": "address"
        },
        {
          "indexed": false,
          "internalType": "uint256",
          "name": "deadline",
          "type": "uint256"
        }
      ],
      "name": "ProjectCreated",
      "type": "event"
    },
    {
      "anonymous": false,
      "inputs": [
        {
          "indexed": true,
          "internalType": "uint256",
          "name": "projectId",
          "type": "uint256"
        },
        {
          "indexed": false,
          "internalType": "bool",
          "name": "isFinalReveal",
          "type": "bool"
        }
      ],
      "name": "RevealRequested",
      "type": "event"
    },
    {
      "anonymous": false,
      "inputs": [
        {
          "indexed": true,
          "internalType": "uint256",
          "name": "projectId",
          "type": "uint256"
        },
        {
          "indexed": true,
          "internalType": "address",
          "name": "sponsor",
          "type": "address"
        },
        {
          "indexed": false,
          "internalType": "uint256",
          "name": "timestamp",
          "type": "uint256"
        }
      ],
      "name": "SponsorshipAdded",
      "type": "event"
    },
    {
      "inputs": [
        {
          "internalType": "uint256",
          "name": "durationDays",
          "type": "uint256"
        },
        {
          "internalType": "uint8",
          "name": "topKLimit",
          "type": "uint8"
        },
        {
          "internalType": "string",
          "name": "reclaimProofId",
          "type": "string"
        }
      ],
      "name": "createProject",
      "outputs": [
        {
          "internalType": "uint256",
          "name": "",
          "type": "uint256"
        }
      ],
      "stateMutability": "nonpayable",
      "type": "function"
    },
    {
      "inputs": [
        {
          "internalType": "uint256",
          "name": "projectId",
          "type": "uint256"
        },
        {
          "internalType": "string",
          "name": "ipfsHash",
          "type": "string"
        }
      ],
      "name": "fulfillLeaderboard",
      "outputs": [],
      "stateMutability": "nonpayable",
      "type": "function"
    },
    {
      "inputs": [],
      "name": "fundMeToken",
      "outputs": [
        {
          "internalType": "contract IERC7984",
          "name": "",
          "type": "address"
        }
      ],
      "stateMutability": "view",
      "type": "function"
    },
    {
      "inputs": [
        {
          "internalType": "uint256",
          "name": "projectId",
          "type": "uint256"
        }
      ],
      "name": "getLeaderboardHistory",
      "outputs": [
        {
          "internalType": "string[]",
          "name": "",
          "type": "string[]"
        }
      ],
      "stateMutability": "view",
      "type": "function"
    },
    {
      "inputs": [],
      "name": "leaderboardCooldown",
      "outputs": [
        {
          "internalType": "uint256",
          "name": "",
          "type": "uint256"
        }
      ],
      "stateMutability": "view",
      "type": "function"
    },
    {
      "inputs": [],
      "name": "nextProjectId",
      "outputs": [
        {
          "internalType": "uint256",
          "name": "",
          "type": "uint256"
        }
      ],
      "stateMutability": "view",
      "type": "function"
    },
    {
      "inputs": [],
      "name": "owner",
      "outputs": [
        {
          "internalType": "address",
          "name": "",
          "type": "address"
        }
      ],
      "stateMutability": "view",
      "type": "function"
    },
    {
      "inputs": [
        {
          "internalType": "uint256",
          "name": "",
          "type": "uint256"
        }
      ],
      "name": "pendingIsFinalReveal",
      "outputs": [
        {
          "internalType": "bool",
          "name": "",
          "type": "bool"
        }
      ],
      "stateMutability": "view",
      "type": "function"
    },
    {
      "inputs": [
        {
          "internalType": "uint256",
          "name": "",
          "type": "uint256"
        }
      ],
      "name": "projects",
      "outputs": [
        {
          "internalType": "address",
          "name": "sponsoree",
          "type": "address"
        },
        {
          "internalType": "uint256",
          "name": "deadline",
          "type": "uint256"
        },
        {
          "internalType": "uint8",
          "name": "topKLimit",
          "type": "uint8"
        },
        {
          "internalType": "string",
          "name": "reclaimProofId",
          "type": "string"
        },
        {
          "internalType": "bool",
          "name": "isFinalized",
          "type": "bool"
        },
        {
          "internalType": "uint256",
          "name": "lastRevealTimestamp",
          "type": "uint256"
        }
      ],
      "stateMutability": "view",
      "type": "function"
    },
    {
      "inputs": [],
      "name": "renounceOwnership",
      "outputs": [],
      "stateMutability": "nonpayable",
      "type": "function"
    },
    {
      "inputs": [
        {
          "internalType": "uint256",
          "name": "projectId",
          "type": "uint256"
        },
        {
          "internalType": "bool",
          "name": "isFinalReveal",
          "type": "bool"
        }
      ],
      "name": "requestLeaderboardRefresh",
      "outputs": [],
      "stateMutability": "payable",
      "type": "function"
    },
    {
      "inputs": [
        {
          "internalType": "uint256",
          "name": "newCooldownSeconds",
          "type": "uint256"
        }
      ],
      "name": "setLeaderboardCooldown",
      "outputs": [],
      "stateMutability": "nonpayable",
      "type": "function"
    },
    {
      "inputs": [
        {
          "internalType": "address",
          "name": "_newOracle",
          "type": "address"
        }
      ],
      "name": "setTeeOracleAddress",
      "outputs": [],
      "stateMutability": "nonpayable",
      "type": "function"
    },
    {
      "inputs": [
        {
          "internalType": "uint256",
          "name": "projectId",
          "type": "uint256"
        },
        {
          "internalType": "externalEuint256",
          "name": "encryptedAmount",
          "type": "bytes32"
        },
        {
          "internalType": "bytes",
          "name": "inputProof",
          "type": "bytes"
        }
      ],
      "name": "sponsorProject",
      "outputs": [],
      "stateMutability": "nonpayable",
      "type": "function"
    },
    {
      "inputs": [],
      "name": "teeOracleAddress",
      "outputs": [
        {
          "internalType": "address",
          "name": "",
          "type": "address"
        }
      ],
      "stateMutability": "view",
      "type": "function"
    },
    {
      "inputs": [
        {
          "internalType": "address",
          "name": "newOwner",
          "type": "address"
        }
      ],
      "name": "transferOwnership",
      "outputs": [],
      "stateMutability": "nonpayable",
      "type": "function"
    }
  ],
  "bytecode": "0x608060405261a8c0600355348015610015575f5ffd5b506040516116d63803806116d6833981016040819052610034916100e0565b338061005957604051631e4fbdf760e01b81525f600482015260240160405180910390fd5b61006281610091565b50600180546001600160a01b039092166001600160a01b0319928316179055600280549091163317905561010d565b5f80546001600160a01b038381166001600160a01b0319831681178455604051919092169283917f8be0079c531659141344cd1fd0a4f28419497f9722a3daafe3b4186f6b6457e09190a35050565b5f602082840312156100f0575f5ffd5b81516001600160a01b0381168114610106575f5ffd5b9392505050565b6115bc8061011a5f395ff3fe6080604052600436106100ef575f3560e01c8063715018a611610087578063dae041ae11610057578063dae041ae14610293578063dc3c55d6146102b2578063e935b7b1146102f0578063f2fde38b14610305575f5ffd5b8063715018a614610225578063729c9173146102395780638da5cb5b146102585780639bef238b14610274575f5ffd5b8063337c54b5116100c2578063337c54b51461018d5780633622983c146101b057806340c474f4146101e75780634a11438714610206575f5ffd5b8063107046bd146100f3578063173548711461012d5780632b17c051146101595780632c3081e71461017a575b5f5ffd5b3480156100fe575f5ffd5b5061011261010d366004610fdb565b610324565b60405161012496959493929190611020565b60405180910390f35b348015610138575f5ffd5b5061014c610147366004610fdb565b6103f2565b6040516101249190611064565b348015610164575f5ffd5b50610178610173366004610fdb565b6104da565b005b6101786101883660046110d4565b6104e7565b348015610198575f5ffd5b506101a260035481565b604051908152602001610124565b3480156101bb575f5ffd5b506002546101cf906001600160a01b031681565b6040516001600160a01b039091168152602001610124565b3480156101f2575f5ffd5b506001546101cf906001600160a01b031681565b348015610211575f5ffd5b50610178610220366004611102565b61070e565b348015610230575f5ffd5b50610178610780565b348015610244575f5ffd5b50610178610253366004611174565b610793565b348015610263575f5ffd5b505f546001600160a01b03166101cf565b34801561027f575f5ffd5b506101a261028e3660046111c3565b610990565b34801561029e575f5ffd5b506101786102ad366004611208565b610bd6565b3480156102bd575f5ffd5b506102e06102cc366004610fdb565b60066020525f908152604090205460ff1681565b6040519015158152602001610124565b3480156102fb575f5ffd5b506101a260045481565b348015610310575f5ffd5b5061017861031f366004611102565b610cc5565b60056020525f908152604090208054600182015460028301546003840180546001600160a01b0390941694929360ff909216929161036190611250565b80601f016020809104026020016040519081016040528092919081815260200182805461038d90611250565b80156103d85780601f106103af576101008083540402835291602001916103d8565b820191905f5260205f20905b8154815290600101906020018083116103bb57829003601f168201915b505050506004830154600590930154919260ff1691905086565b606060055f8381526020019081526020015f20600601805480602002602001604051908101604052809291908181526020015f905b828210156104cf578382905f5260205f2001805461044490611250565b80601f016020809104026020016040519081016040528092919081815260200182805461047090611250565b80156104bb5780601f10610492576101008083540402835291602001916104bb565b820191905f5260205f20905b81548152906001019060200180831161049e57829003601f168201915b505050505081526020019060010190610427565b505050509050919050565b6104e2610d02565b600355565b5f82815260056020526040902080546001600160a01b031633146105525760405162461bcd60e51b815260206004820152601a60248201527f4f6e6c792073706f6e736f7265652063616e207265667265736800000000000060448201526064015b60405180910390fd5b81156105ff5780600101544210156105a55760405162461bcd60e51b815260206004820152601660248201527510d85b5c185a59db881b9bdd08195b991959081e595d60521b6044820152606401610549565b600481015460ff16156105fa5760405162461bcd60e51b815260206004820152601960248201527f50726f6a65637420616c72656164792066696e616c697a6564000000000000006044820152606401610549565b6106b1565b8060010154421061065e5760405162461bcd60e51b8152602060048201526024808201527f43616d706169676e2068617320656e6465642c207573652066696e616c2072656044820152631d99585b60e21b6064820152608401610549565b6003548160050154610670919061129c565b4210156106b15760405162461bcd60e51b815260206004820152600f60248201526e436f6f6c646f776e2061637469766560881b6044820152606401610549565b5f83815260066020908152604091829020805460ff1916851515908117909155426005850155915191825284917f98f74311feaa31b35c529a3c109c0ccf1ea4fbe475263ec1d69b0c1b9fcadfac910160405180910390a2505050565b610716610d02565b6001600160a01b03811661075e5760405162461bcd60e51b815260206004820152600f60248201526e496e76616c6964206164647265737360881b6044820152606401610549565b600280546001600160a01b0319166001600160a01b0392909216919091179055565b610788610d02565b6107915f610d2e565b565b5f848152600560205260409020600181015442106107f35760405162461bcd60e51b815260206004820152601a60248201527f46756e64696e672063616d706169676e2068617320656e6465640000000000006044820152606401610549565b600154604051635b1b1e7960e11b81523360048201523060248201526001600160a01b039091169063b6363cf290604401602060405180830381865afa15801561083f573d5f5f3e3d5ffd5b505050506040513d601f19601f8201168201806040525081019061086391906112b5565b6108af5760405162461bcd60e51b815260206004820152601b60248201527f506c6174666f726d206973206e6f7420616e206f70657261746f7200000000006044820152606401610549565b5f6108bb858585610d7d565b6001549091506108d59082906001600160a01b0316610df1565b600154825460405163eb3155b560e01b81523360048201526001600160a01b0391821660248201526044810184905291169063eb3155b5906064016020604051808303815f875af115801561092c573d5f5f3e3d5ffd5b505050506040513d601f19601f8201168201806040525081019061095091906112d0565b50604051428152339087907fbf3f11a0935e288e5bacc2307962b28c11ef53c7f19323b785417efcf1dd13f99060200160405180910390a3505050505050565b5f5f85116109d75760405162461bcd60e51b815260206004820152601460248201527304475726174696f6e206d757374206265203e20360641b6044820152606401610549565b5f8460ff1611610a1d5760405162461bcd60e51b81526020600482015260116024820152700546f70204b206d757374206265203e203607c1b6044820152606401610549565b600480545f9182610a2d836112e7565b909155506040805160e0810190915233815290915060208101610a5388620151806112ff565b610a5d904261129c565b81526020018660ff16815260200185858080601f0160208091040260200160405190810160405280939291908181526020018383808284375f920182905250938552505050602080830182905260408084018390528051838152918201905260609092019190610add565b6060815260200190600190039081610ac85790505b5090525f82815260056020908152604091829020835181546001600160a01b0319166001600160a01b039091161781559083015160018201559082015160028201805460ff191660ff90921691909117905560608201516003820190610b439082611376565b50608082015160048201805460ff191691151591909117905560a0820151600582015560c08201518051610b81916006840191602090910190610f25565b5050505f81815260056020908152604091829020600101549151918252339183917f1b9d0946c0a6f3b3a57782ad25a4553bd5bcf1f1a252068eafc757670aad573a910160405180910390a395945050505050565b6002546001600160a01b03163314610c305760405162461bcd60e51b815260206004820152601d60248201527f4f6e6c7920544545204f7261636c652063616e2063616c6c20746869730000006044820152606401610549565b5f83815260056020908152604082206006810180546001810182559084529190922001610c5e838583611431565b505f8481526006602052604090205460ff1615610c855760048101805460ff191660011790555b837f82f2379f712831a90d9a41d0d4a5844f3d7a1b79427ef1c57250fe48ba1c3cb58484604051610cb7929190611513565b60405180910390a250505050565b610ccd610d02565b6001600160a01b038116610cf657604051631e4fbdf760e01b81525f6004820152602401610549565b610cff81610d2e565b50565b5f546001600160a01b031633146107915760405163118cdaa760e01b8152336004820152602401610549565b5f80546001600160a01b038381166001600160a01b0319831681178455604051919092169283917f8be0079c531659141344cd1fd0a4f28419497f9722a3daafe3b4186f6b6457e09190a35050565b5f83610d87610dff565b6001600160a01b031663d0571e428233878760236040518663ffffffff1660e01b8152600401610dbb95949392919061152e565b5f604051808303815f87803b158015610dd2575f5ffd5b505af1158015610de4573d5f5f3e3d5ffd5b5092979650505050505050565b610dfb8282610e0d565b5050565b5f610e08610e90565b905090565b610e218260061a60f81b600160f81b161590565b610dfb57610e2d610dff565b604051630f8e573b60e21b8152600481018490526001600160a01b0383811660248301529190911690633e395cec906044015f604051808303815f87803b158015610e76575f5ffd5b505af1158015610e88573d5f5f3e3d5ffd5b505050505050565b5f4661a4b103610e9f57505f90565b4662066eee03610ec2575073d464b198f06756a1d00be223634b85e0a731c22990565b46617a6903610ee457507339847aeba923cc7367d4684194091d022b3f854890565b60405162461bcd60e51b81526020600482015260166024820152752737bc1d102ab739bab83837b93a32b21031b430b4b760511b6044820152606401610549565b828054828255905f5260205f20908101928215610f69579160200282015b82811115610f695782518290610f599082611376565b5091602001919060010190610f43565b50610f75929150610f79565b5090565b80821115610f75575f610f8c8282610f95565b50600101610f79565b508054610fa190611250565b5f825580601f10610fb0575050565b601f0160209004905f5260205f2090810190610cff91905b80821115610f75575f8155600101610fc8565b5f60208284031215610feb575f5ffd5b5035919050565b5f81518084528060208401602086015e5f602082860101526020601f19601f83011685010191505092915050565b60018060a01b038716815285602082015260ff8516604082015260c060608201525f61104f60c0830186610ff2565b93151560808301525060a00152949350505050565b5f602082016020835280845180835260408501915060408160051b8601019250602086015f5b828110156110bb57603f198786030184526110a6858351610ff2565b9450602093840193919091019060010161108a565b50929695505050505050565b8015158114610cff575f5ffd5b5f5f604083850312156110e5575f5ffd5b8235915060208301356110f7816110c7565b809150509250929050565b5f60208284031215611112575f5ffd5b81356001600160a01b0381168114611128575f5ffd5b9392505050565b5f5f83601f84011261113f575f5ffd5b50813567ffffffffffffffff811115611156575f5ffd5b60208301915083602082850101111561116d575f5ffd5b9250929050565b5f5f5f5f60608587031215611187575f5ffd5b8435935060208501359250604085013567ffffffffffffffff8111156111ab575f5ffd5b6111b78782880161112f565b95989497509550505050565b5f5f5f5f606085870312156111d6575f5ffd5b84359350602085013560ff811681146111ed575f5ffd5b9250604085013567ffffffffffffffff8111156111ab575f5ffd5b5f5f5f6040848603121561121a575f5ffd5b83359250602084013567ffffffffffffffff811115611237575f5ffd5b6112438682870161112f565b9497909650939450505050565b600181811c9082168061126457607f821691505b60208210810361128257634e487b7160e01b5f52602260045260245ffd5b50919050565b634e487b7160e01b5f52601160045260245ffd5b808201808211156112af576112af611288565b92915050565b5f602082840312156112c5575f5ffd5b8151611128816110c7565b5f602082840312156112e0575f5ffd5b5051919050565b5f600182016112f8576112f8611288565b5060010190565b80820281158282048414176112af576112af611288565b634e487b7160e01b5f52604160045260245ffd5b601f82111561137157805f5260205f20601f840160051c8101602085101561134f5750805b601f840160051c820191505b8181101561136e575f815560010161135b565b50505b505050565b815167ffffffffffffffff81111561139057611390611316565b6113a48161139e8454611250565b8461132a565b6020601f8211600181146113d6575f83156113bf5750848201515b5f19600385901b1c1916600184901b17845561136e565b5f84815260208120601f198516915b8281101561140557878501518255602094850194600190920191016113e5565b508482101561142257868401515f19600387901b60f8161c191681555b50505050600190811b01905550565b67ffffffffffffffff83111561144957611449611316565b61145d836114578354611250565b8361132a565b5f601f84116001811461148e575f85156114775750838201355b5f19600387901b1c1916600186901b17835561136e565b5f83815260208120601f198716915b828110156114bd578685013582556020948501946001909201910161149d565b50868210156114d9575f1960f88860031b161c19848701351681555b505060018560011b0183555050505050565b81835281816020850137505f828201602090810191909152601f909101601f19169091010190565b602081525f6115266020830184866114eb565b949350505050565b8581526001600160a01b03851660208201526080604082018190525f9061155890830185876114eb565b90506064831061157657634e487b7160e01b5f52602160045260245ffd5b826060830152969550505050505056fea26469706673582212207f92357db56c819e8bde4b3132eb1ad9296fe7989b0c727ecc83e02f4c408e5164736f6c634300081c0033",
  "linkReferences": {},
  "deployedLinkReferences": {},
  "immutableReferences": {},
  "inputSourceName": "project/contracts/FundMePlatform.sol",
  "buildInfoId": "solc-0_8_28-632361cdbf6448f962d6b86da4a14707667a8e55"
}